{
  "contractName": "MockPriceFeed",
  "abi": [
    {
      "inputs": [
        {
          "internalType": "int256",
          "name": "_price",
          "type": "int256"
        }
      ],
      "stateMutability": "nonpayable",
      "type": "constructor"
    },
    {
      "inputs": [
        {
          "internalType": "int256",
          "name": "_price",
          "type": "int256"
        }
      ],
      "name": "setPrice",
      "outputs": [],
      "stateMutability": "nonpayable",
      "type": "function"
    },
    {
      "inputs": [],
      "name": "decimals",
      "outputs": [
        {
          "internalType": "uint8",
          "name": "",
          "type": "uint8"
        }
      ],
      "stateMutability": "pure",
      "type": "function",
      "constant": true
    },
    {
      "inputs": [],
      "name": "description",
      "outputs": [
        {
          "internalType": "string",
          "name": "",
          "type": "string"
        }
      ],
      "stateMutability": "pure",
      "type": "function",
      "constant": true
    },
    {
      "inputs": [],
      "name": "version",
      "outputs": [
        {
          "internalType": "uint256",
          "name": "",
          "type": "uint256"
        }
      ],
      "stateMutability": "pure",
      "type": "function",
      "constant": true
    },
    {
      "inputs": [
        {
          "internalType": "uint80",
          "name": "_roundId",
          "type": "uint80"
        }
      ],
      "name": "getRoundData",
      "outputs": [
        {
          "internalType": "uint80",
          "name": "",
          "type": "uint80"
        },
        {
          "internalType": "int256",
          "name": "",
          "type": "int256"
        },
        {
          "internalType": "uint256",
          "name": "",
          "type": "uint256"
        },
        {
          "internalType": "uint256",
          "name": "",
          "type": "uint256"
        },
        {
          "internalType": "uint80",
          "name": "",
          "type": "uint80"
        }
      ],
      "stateMutability": "pure",
      "type": "function",
      "constant": true
    },
    {
      "inputs": [],
      "name": "latestRoundData",
      "outputs": [
        {
          "internalType": "uint80",
          "name": "",
          "type": "uint80"
        },
        {
          "internalType": "int256",
          "name": "answer",
          "type": "int256"
        },
        {
          "internalType": "uint256",
          "name": "",
          "type": "uint256"
        },
        {
          "internalType": "uint256",
          "name": "",
          "type": "uint256"
        },
        {
          "internalType": "uint80",
          "name": "",
          "type": "uint80"
        }
      ],
      "stateMutability": "view",
      "type": "function",
      "constant": true
    }
  ],
  "bytecode": "0x608060405234801561001057600080fd5b506040516105ae3803806105ae8339818101604052810190610032919061007a565b80600081905550506100a7565b600080fd5b6000819050919050565b61005781610044565b811461006257600080fd5b50565b6000815190506100748161004e565b92915050565b6000602082840312156100905761008f61003f565b5b600061009e84828501610065565b91505092915050565b6104f8806100b66000396000f3fe608060405234801561001057600080fd5b50600436106100625760003560e01c8063313ce5671461006757806354fd4d50146100855780637284e416146100a35780639a6fc8f5146100c1578063f7a30806146100f5578063feaf968c14610111575b600080fd5b61006f610133565b60405161007c919061020d565b60405180910390f35b61008d61013c565b60405161009a9190610241565b60405180910390f35b6100ab610145565b6040516100b891906102ec565b60405180910390f35b6100db60048036038101906100d69190610355565b610182565b6040516100ec9594939291906103aa565b60405180910390f35b61010f600480360381019061010a9190610429565b6101c5565b005b6101196101cf565b60405161012a9594939291906103aa565b60405180910390f35b60006008905090565b60006001905090565b60606040518060400160405280600f81526020017f4d6f636b20507269636520466565640000000000000000000000000000000000815250905090565b60008060008060006040517f08c379a00000000000000000000000000000000000000000000000000000000081526004016101bc906104a2565b60405180910390fd5b8060008190555050565b6000806000806000806000546000426000945094509450945094509091929394565b600060ff82169050919050565b610207816101f1565b82525050565b600060208201905061022260008301846101fe565b92915050565b6000819050919050565b61023b81610228565b82525050565b60006020820190506102566000830184610232565b92915050565b600081519050919050565b600082825260208201905092915050565b60005b8381101561029657808201518184015260208101905061027b565b60008484015250505050565b6000601f19601f8301169050919050565b60006102be8261025c565b6102c88185610267565b93506102d8818560208601610278565b6102e1816102a2565b840191505092915050565b6000602082019050818103600083015261030681846102b3565b905092915050565b600080fd5b600069ffffffffffffffffffff82169050919050565b61033281610313565b811461033d57600080fd5b50565b60008135905061034f81610329565b92915050565b60006020828403121561036b5761036a61030e565b5b600061037984828501610340565b91505092915050565b61038b81610313565b82525050565b6000819050919050565b6103a481610391565b82525050565b600060a0820190506103bf6000830188610382565b6103cc602083018761039b565b6103d96040830186610232565b6103e66060830185610232565b6103f36080830184610382565b9695505050505050565b61040681610391565b811461041157600080fd5b50565b600081359050610423816103fd565b92915050565b60006020828403121561043f5761043e61030e565b5b600061044d84828501610414565b91505092915050565b7f4d6f636b5072696365466565643a204e6f7420696d706c656d656e7465640000600082015250565b600061048c601e83610267565b915061049782610456565b602082019050919050565b600060208201905081810360008301526104bb8161047f565b905091905056fea264697066735822122058b1c3e41bde65051372eddbf4c734ba7665074c1efffc197caf6505636445a364736f6c63430008130033",
  "immutableReferences": {},
  "source": "// SPDX-License-Identifier: MIT\npragma solidity ^0.8.0;\n\nimport \"@chainlink/contracts/src/v0.8/interfaces/AggregatorV3Interface.sol\";\n\ncontract MockPriceFeed is AggregatorV3Interface {\n    int256 private price;\n\n    constructor(int256 _price) {\n        price = _price;\n    }\n\n    function setPrice(int256 _price) public {\n        price = _price;\n    }\n\n    function decimals() external pure override returns (uint8) {\n        return 8;\n    }\n\n    function description() external pure override returns (string memory) {\n        return \"Mock Price Feed\";\n    }\n\n    function version() external pure override returns (uint256) {\n        return 1;\n    }\n\n    function getRoundData(uint80 _roundId)\n        external\n        pure\n        override\n        returns (\n            uint80,\n            int256,\n            uint256,\n            uint256,\n            uint80\n        )\n    {\n        revert(\"MockPriceFeed: Not implemented\");\n    }\n\n    function latestRoundData()\n        external\n        view\n        override\n        returns (\n            uint80,\n            int256 answer,\n            uint256,\n            uint256,\n            uint80\n        )\n    {\n        return (0, price, 0, block.timestamp, 0);\n    }\n}\n",
  "sourcePath": "/Users/venugopalmiriyala/Documents/club8/contracts/MockPriceFeed.sol",
  "compiler": {
    "name": "solc",
    "version": "0.8.19+commit.7dd6d404.Emscripten.clang"
  },
  "schemaVersion": "3.4.13",
  "updatedAt": "2023-03-16T00:58:53.474Z",
  "networkType": "ethereum",
  "devdoc": {
    "kind": "dev",
    "methods": {},
    "version": 1
  },
  "userdoc": {
    "kind": "user",
    "methods": {},
    "version": 1
  }
}